:100000000C94C6000C94EE000C94EE000C94EE00E0
:100010000C94EE000C94EE000C94EE000C94EE00A8
:100020000C94EE000C94EE000C94D1030C9440045C
:100030000C94EE000C94EE000C94EE000C94EE0088
:100040000C94EE000C94BC060C94EE000C94EE00A4
:100050000C94EE000C94EE000C94EE000C947206DE
:100060000C94EE000C94EE000C94EE000C94EE0058
:100070000C94EE000C94EE000C94EE000C94EE0048
:100080000C94EE000C94EE000C94EE000C94EE0038
:100090000C94EE000C94EE000C94EE000C94EE0028
:1000A0000C94EE000C94EE000C94EE0000000000A6
:1000B000250028002B002E00310004040404040352
:1000C00004050202020204030202020206060606F8
:1000D000060604040202020404040802011040801F
:1000E000401020408040800802040180402010021F
:1000F00001108010204040200000000200090F0085
:1001000000030401000C00000000000000000000DB
:1001100000000000000000080B00020202000009BD
:100120000400000102020000052400100105240162
:1001300001010424020605240600010705810310BD
:10014000004009040100020A000000070502024005
:1001500000000705830240000004030904120100A7
:1001600002EF0201404123378000010102030141F7
:10017000726475696E6F204C4C43004172647569FE
:100180006E6F204D6963726F0000780711241FBEE7
:10019000CFEFDAE0DEBFCDBF11E0A0E0B1E0E0ECF0
:1001A000F0E102C005900D92A833B107D9F721E024
:1001B000A8E3B1E001C01D92A03DB207E1F710E055
:1001C000C6ECD0E004C02197FE010E945808C53C4F
:1001D000D107C9F70E94AF070C945E080C94000089
:1001E000FC0180915701882311F13FB7F89482E018
:1001F0008093E9002091F200822F90E018161906F2
:1002000014F481E090E0882339F0289A44E6409382
:1002100056014091F1004083222339F02091F200F1
:10022000211103C02BE62093E8003FBF08958FEF14
:100230009FEF08952FB7F89483E08093E9009091A1
:10024000E800892F807295FF04C09091F20080E44D
:10025000891B2FBF089580914E0181110DC082E04E
:1002600080934A0184E080934B0110924D011092DB
:100270004C0181E080934E018AE491E00895409121
:1002800044015091450120914201309143014217B0
:100290005307B4F49091E8009570E1F39091E80071
:1002A00092FD19C08093F100809144019091450125
:1002B00001968F739927892B19F48EEF8093E800AC
:1002C000809144019091450101969093450180935E
:1002D000440181E0089580E00895EF92FF920F932A
:1002E0001F93CF93DF93F82E192FE62E042F81E072
:1002F000860F880F0E943F0183E00E943F01CF2DAF
:10030000D12FEC0EFD2EF11CCE15DF05B9F007FF45
:1003100013C0FE0184910E943F01182F80E00E94CB
:100320003F01812321968111EFCFDF91CF911F9162
:100330000F91FF90EF9008958881EDCF81E0F5CF88
:10034000DF92EF92FF920F931F93CF93DF93D82EFC
:100350008A01EB017B01E40EF51ECE15DF0559F095
:10036000D7FE12C0FE0184910E943F0121968111A7
:10037000F4CF0FEF1FEFC801DF91CF911F910F91C5
:10038000FF90EF90DF9008958881EECF0F931F9339
:10039000CF93DF931F92CDB7DEB782E0898342E42B
:1003A00050E067E171E080E80E94A0010E942B010B
:1003B000DC0112960D911C910115110589F0D801EF
:1003C000ED91FC910280F381E02DBE016F5F7F4FC4
:1003D000C801099597FD04C0F80100851185ECCF8F
:1003E00089810F90DF91CF911F910F9108956150F6
:1003F00030F02091F100FC0120830196F8CF289A7B
:1004000084E6809356010895CF93DF931F92CDB772
:10041000DEB76983DC01ED91FC910280F381E02D70
:1004200041E050E0BE016F5F7F4F09950F90DF9173
:10043000CF91089583E08093E9008091F2008823B2
:1004400019F08AE38093E80008950E941A0190E071
:100450000895CF93DF931F92CDB7DEB7FC0184855B
:10046000958597FD08C02FEF3FEF358724870F90C4
:10047000DF91CF910895CE0101960E94F00001977F
:1004800019F4898190E0F3CF8FEF9FEFF0CF0F93B6
:100490001F93CF93DF931F92CDB7DEB78C01FC0182
:1004A0008485958597FF0BC0CE0101960E94F000D0
:1004B000019771F4898190E0F80195878487F801AC
:1004C000848595850F90DF91CF911F910F910895AD
:1004D0008FEF9FEFF1CFFC018485958597FD0BC0D1
:1004E0009FB7F89482E08093E9008091F2009FBF6B
:1004F00090E0019608959FB7F89482E08093E90018
:100500008091F2009FBF90E00895282F30E0F9011C
:10051000E850FF4F9491F901E752FF4F8491265420
:100520003F4FF9012491222309F430C09923E9F0C7
:1005300091509F30D0F4E92FF0E0EF55FD4F0C942F
:100540005808CF02D302B002C702CB02B502B502EF
:10055000B502D602DC02E002E402EA02B502EE02D3
:10056000909180009F7790938000E22FF0E0EE0F53
:10057000FF1FE455FF4FA591B4919FB7F894EC91FC
:10058000611132C080958E238C939FBF0895909106
:1005900080009F7DE8CF90918000977FE4CF94B555
:1005A0009F7794BDE2CF94B59F7DFBCF9091900053
:1005B0009F7790939000D9CF909190009F7DF9CF35
:1005C00090919000977FF5CF9091C0009F77909386
:1005D000C000CBCF9091C0009F7DF9CF9091C20019
:1005E000977F9093C200C1CF8E2BCECF3FB7F894A8
:1005F00080913E0190913F01A0914001B091410155
:1006000026B5A89B05C02F3F19F00196A11DB11D6D
:100610003FBFBA2FA92F982F8827BC01CD01620FA9
:10062000711D811D911D42E0660F771F881F991F64
:100630004A95D1F70895CF92DF92EF92FF920E94F0
:10064000F6026B017C010E94F6026C197D098E098D
:100650009F09683E734081059105A8F3FF90EF90D4
:10066000DF90CF9008958F929F92AF92BF92CF92DA
:10067000DF92EF92FF920F931F93CF93DF936C0162
:100680007B018A0180910B01882309F458C0809175
:100690005701882309F453C08091480180FF05C0A9
:1006A0008091E00082608093E000E801B12C8AEF45
:1006B000A82E93E0892E2AE3922E209711F4BB20D6
:1006C000B9F10E941A01811106C0AA94AA20B9F1B9
:1006D0000E941B03F2CF8C171D0611F00CF08C2F1B
:1006E0009FB7F8948092E9002091E80025FD02C0B0
:1006F0009FBFE3CF282F30E0C21BD30BF7018150FF
:1007000020F041914093F100FACFE20EF31EBB209E
:1007100021F09092E800B12CEBCF8091E80085FDAC
:10072000E7CF9092E800BB24B394209709F3F3CF6E
:100730005D9A84E680934701101611063CF081E033
:1007400090E0F6019383828310E000E0C801DF911E
:10075000CF911F910F91FF90EF90DF90CF90BF90BE
:10076000AF909F908F900895CF93DF93FC010190FD
:100770000020E9F73197AF01481B590BBC0188E510
:1007800091E00E943303EC0142E050E065E271E049
:1007900088E591E00E9433038C0F9D1FDF91CF917C
:1007A00008951F920F920FB60F9211248F939F936B
:1007B0008091E1009091E100937F9093E10083FFAD
:1007C0000FC01092E90091E09093EB001092EC00C2
:1007D00092E39093ED001092570198E09093F0000F
:1007E00082FF22C093E09093E9009091F200992358
:1007F00019F09AE39093E80090914701992341F012
:1008000090914701915090934701911101C05D98DB
:1008100090915601992341F09091560191509093F7
:100820005601911101C0289884FF18C08091E20000
:100830008E7E81608093E2008091E1008F7E8093C4
:10084000E100809148018E7E8061809348019F91F4
:100850008F910F900FBE0F901F90189580FFF7CFCC
:100860008091E2008E7E80618093E2008091E100C1
:100870008E7E8093E100809148018E7E8160E5CF7D
:100880001F920F920FB60F921124CF92DF92EF9228
:10089000FF920F931F932F933F934F935F936F9309
:1008A0007F938F939F93AF93BF93EF93FF93CF93D8
:1008B000DF93CDB7DEB76C97DEBFCDBF1092E900F6
:1008C0008091E80083FF25C068E0CE0145960E9434
:1008D000F70182EF8093E8008D8987FF39C09091FE
:1008E000E80090FFFCCF982F907609F034C19E89E4
:1008F0004F89588D2F89F88C911131C0803861F55E
:10090000809149018093F1001092F1008EEF809365
:10091000E8006C960FB6F894DEBF0FBECDBFDF9136
:10092000CF91FF91EF91BF91AF919F918F917F9167
:100930006F915F914F913F912F911F910F91FF9078
:10094000EF90DF90CF900F900FBE0F901F901895F3
:100950009EEF9093E800C7CF1092F100D5CF913071
:1009600059F48111D3CF4130510581F6809149016D
:100970008D7F80934901CACF933049F48111C6CF4E
:100980004130510519F6809149018260F2CF9530CE
:1009900041F48091E80080FFFCCF20682093E300C1
:1009A000B5CF963009F0A9C00B8D1C8D22E01092B6
:1009B000E9001092450110924401F2122EC01092EB
:1009C0004301109242010E94C6011F8299E099835F
:1009D000FA8291E09E8390EA98879AEF9987209116
:1009E000440130914501275F3F4F3C832B838D832A
:1009F0001092E900109245011092440110934301B6
:100A00000093420149E050E0BE016F5F7F4F80E0FC
:100A10000E94A0010E94C60179CF10934301009368
:100A200042010E942B01DC0112960D911C910115CF
:100A3000110509F451C1D801ED91FC910480F581B3
:100A4000E02DBE016B5E7F4FC8010995009709F04C
:100A50003EC1F80100851185EACFF3E0FF120EC018
:100A60008F89882309F440C0823061F440E86DE04A
:100A70008BE791E00E946D01811148CF81E2809364
:100A8000EB0047CF813029F440E86BE08FE691E03E
:100A9000F1CF833099F70E942B01DC011296ED9083
:100AA000FC908E010F5F1F4F6801E114F10479F093
:100AB000D701ED91FC910680F781E02DB801C701C7
:100AC0000995080F111DF701E084F184EECFD801DC
:100AD0001C92F60101900020E9F73197BF016C19D3
:100AE0007D0940E0C601C6CF69E571E0FB01449194
:100AF00050E080E80E94A00109CF973009F4BECFF2
:100B0000983021F481E08093F10000CF993009F012
:100B1000FDCE837009F0B2CFEDE0F1E081E031E08D
:100B200096E32191222371F08093E9003093EB004A
:100B3000DF0111972C912093EC009093ED008F5FD3
:100B4000873079F78EE78093EA001092EA008F8968
:100B500080935701DBCE8B8D9C8D1092E900109213
:100B60004501109244019093430180934201898D85
:100B7000811192C08E899D89913A49F4813209F0A0
:100B80007DCF47E050E064E071E080E0B3CF913288
:100B900009F074CF833269F48F89988DB0E0A0E0BA
:100BA0008093000190930101A0930201B09303018F
:100BB000ADCE803269F48091E80082FFFCCF67E01F
:100BC00084E091E00E94F7018BEF8093E8009ECED5
:100BD000823209F09BCE8F8980930B01EEEFFFE705
:100BE000859194918B3F9C4D51F1E0E0F8E080912C
:100BF000040190910501A0910601B0910701803B8D
:100C00009440A105B105F1F480910B0180FD1AC05B
:100C1000EE3F8AE0F80789F587E797E791838083BD
:100C2000809160008093460188E19BE00FB6F894C4
:100C3000A895809360000FBE9093600067CEEEEFA2
:100C4000FAE0D5CF808191818737974709F05ECE52
:100C5000A895809160008861809360008091460132
:100C600080936000EE3F2AE0F20789F08091FE0A4F
:100C70009091FF0A9183808349CE8081918187374B
:100C8000980751F29093FF0A8093FE0AC5CF109205
:100C9000FF0A1092FE0A3ACE0E942B01DC01129646
:100CA0000D911C910115110509F4E8CED801ED91C3
:100CB000FC910190F081E02DBE016B5E7F4FC80179
:100CC0000995811123CEF80100851185EBCF181607
:100CD00019060CF41BCED2CEF1E0FF12BECE6DE5AC
:100CE00071E004CF1F920F920FB60F9211242F9331
:100CF0003F938F939F93AF93BF9380913A019091CD
:100D00003B01A0913C01B0913D013091390123E0BC
:100D1000230F2D3758F50196A11DB11D20933901E0
:100D200080933A0190933B01A0933C01B0933D0125
:100D300080913E0190913F01A0914001B09141010D
:100D40000196A11DB11D80933E0190933F01A09398
:100D50004001B0934101BF91AF919F918F913F911D
:100D60002F910F900FBE0F901F90189526E8230F1C
:100D70000296A11DB11DD2CF1F920F920FB60F92F6
:100D800011242F933F934F935F936F937F938F9390
:100D90009F93AF93BF93CF93DF93EF93FF93809194
:100DA0003801C091CC01D0E087FF24C010928500AB
:100DB00010928400809138018F5F80933801809178
:100DC0003801082E000C990B8C179D0724F4809194
:100DD00038018C30C4F18091840090918500049694
:100DE00080349C4908F47AC08091840090918500F9
:100DF000049676C080913801082E000C990B8C1750
:100E00009D07C4F6E09138018E2FEE0F990BFC017F
:100E1000EE0FFF1FE80FF91FE855FE4F808186FF98
:100E2000C9CFE09138018E2FEE0F990BFC01EE0F28
:100E3000FF1FE80FF91FE855FE4F808160E08F73B8
:100E40000E948502B7CF2091840030918500E09107
:100E500038018E2FEE0F990BFC01EE0FFF1FE80FEC
:100E6000F91FE855FE4F81819281820F931F909365
:100E7000890080938800E09138018E2FEE0F990B46
:100E8000FC01EE0FFF1FE80FF91FE855FE4F8081B0
:100E900086FF11C0E09138018E2FEE0F990BFC01F7
:100EA000EE0FFF1FE80FF91FE855FE4F808161E04C
:100EB0008F730E948502FF91EF91DF91CF91BF91D7
:100EC000AF919F918F917F916F915F914F913F91E2
:100ED0002F910F900FBE0F901F90189580E49CE902
:100EE00090938900809388008FEF80933801E3CF3F
:100EF00010925B0110925A0188EE93E0A0E0B0E0FE
:100F000080935C0190935D01A0935E01B0935F01BB
:100F100087E191E090935901809358018FEF9FEF03
:100F200090936501809364018091CC018C3098F49A
:100F300091E0980F9093CC018093CD0190E0FC015B
:100F4000EE0FFF1FE80FF91FE855FE4F88EB9BE0FF
:100F50009283818308958FEF8093CD0108957894D3
:100F600084B5826084BD84B5816084BD85B58260AE
:100F700085BD85B5816085BD80916E00816080935F
:100F80006E001092810080918100826080938100C8
:100F900080918100816080938100809180008160D8
:100FA0008093800080919100826080939100809175
:100FB0009100816080939100809190008160809386
:100FC00090008091C10084608093C1008091C10035
:100FD00082608093C1008091C10081608093C100D4
:100FE0008091C30081608093C3008091C0008260C3
:100FF0008093C0008091C20081608093C200809184
:101000007A00846080937A0080917A008260809375
:101010007A0080917A00816080937A0080917A00D2
:10102000806880937A0010925701109249011092C3
:1010300048018091D70081608093D70080EA809337
:10104000D80089B5806189BD89B5826089BD09B440
:1010500000FEFDCF0E941B038091D8008F7C806131
:101060008093D8008091E000807F8093E0008091A1
:10107000E1008E7E8093E1008DE08093E200559A3E
:10108000209A5D9828988FEF9FEF90936501809349
:10109000640188E291E00E94B4038CE291E00E9436
:1010A000B403C0E0D0E02097F1F30E940000FBCF32
:1010B000EE0FFF1F0590F491E02D0994F894FFCFF7
:1010C000FFFFFFFF00E100000000000000C1808181
:1010D000000000000000000402330325021A026B26
:1010E00002290247020D0A0074696400746C716B76
:0810F00066667573646B000075
:00000001FF
